:020000040800F2
:10000000680B00209D010008971900083D140008A6
:100010009319000811090008D72B00080000000000
:10002000000000000000000000000000D3250008D0
:10003000290D000800000000331E000801270008F9
:10004000B7010008B7010008B7010008B7010008B0
:10005000B7010008B7010008B7010008B7010008A0
:10006000B7010008B7010008B7010008B701000890
:10007000B7010008B7010008B7010008B701000880
:10008000B7010008B7010008B7010008B701000870
:10009000B7010008B7010008B7010008B701000860
:1000A000B7010008B7010008B7010008B701000850
:1000B00065270008B7010008B7010008B70100086C
:1000C000B7010008B7010008B7010008B701000830
:1000D000B701000835290008B7010008B70100087A
:1000E000B7010008B7010008B701000800F002F8E6
:1000F00000F045F80AA090E8000C82448344AAF17D
:100100000107DA4501D100F03AF8AFF2090EBAE87A
:100110000F0013F0010F18BFFB1A43F0010318473B
:100120001C3000003C300000103A24BF78C878C171
:10013000FAD8520724BF30C830C144BF04680C60ED
:10014000704700000023002400250026103A28BF35
:1001500078C1FBD8520728BF30C148BF0B60704739
:10016000642900F0A180782900F0DA80732900F07A
:100170006882002070471FB51FBD10B510BD00F08C
:100180008BFA1146FFF7F7FF02F06CFE00F0A9FAB8
:1001900003B4FFF7F2FF03BC02F061FD094880479A
:1001A00009480047FEE7FEE7FEE7FEE7FEE7FEE759
:1001B000FEE7FEE7FEE7FEE704480549054A064B71
:1001C0007047000005270008ED00000868050020C2
:1001D000680B0020680700206807002070470000B7
:1001E0000FB41CB5074B06AA7B44694600900598DE
:1001F00000F0FDF90020694600F00CFA1CBC5DF827
:1002000014FB00002904000070B5044685690068ED
:10021000C10601D5302600E02026C00707D070BDFA
:10022000D4E9012130469047206A401C20626D1EAF
:10023000F6D570BD70B5044685690078C00707D152
:1002400070BDD4E9012120209047206A401C206223
:100250006D1EF6D570BD70B50C460546012A05D059
:100260002878800600D5EA69002302E0012305E032
:100270005B1C934202D2E05C0028F9D1A869E61821
:10028000C01AA861286A184428622846FFF7BCFFF4
:1002900004E0D5E9012114F8010B9047B442F8D3EA
:1002A0002846FFF7C7FF70BD2DE9F0410646002440
:1002B00010687529314616A510D0AFF300800028CC
:1002C00002DA404213A507E031688A0701D512A57A
:1002D00002E0490704D511A5012401E0AFF3008035
:1002E00000210A2206F1240709E0B0FBF2FCB0FB72
:1002F000F2F302FB1C00303078541846491C0028E9
:10030000F3D123462A463046BDE8F04100F010B94B
:10031000000000002D0000002B0000002000000065
:1003200070B504460D4621461068AFF30080218861
:10033000090502D50F4A7A4402E00E4A7A440E3289
:10034000002104F1240305E000F00F060009965D8A
:100350005E54491C0028F7D120780023000704D5FB
:10036000702D02D009B1022311322046BDE8704041
:1003700000F0DEB8C62D00002DE9F05F8946044686
:100380004FF0000ADFF824B1FB44C0F820A020465B
:10039000E168884700287DD0252806D0D4E90121CE
:1003A0009047206A401C2062F1E700255F46204606
:1003B000E16888472028064607DB312E05D2B819A8
:1003C00010F8200C08B10543F1E7A80701D525F086
:1003D0000405C4F81CA00027C4F818A02A2E09D0D0
:1003E000304602F035FC38B304EB8708303EC8F8DD
:1003F000186019E059F8041B204604EB870291614C
:10040000E1688847012F064618D1E069002820DA04
:1004100025F020051DE0D8F8180000EB800006EB61
:1004200040003038C8F818002046E1688847064682
:1004300002F00EFC0028EED1012F0AD02E2E08D19A
:100440002046E16888477F1C0646022F45F02005BC
:10045000C4DBA069002803DA404245F00105A06131
:10046000E80701D025F01005A6B1A6F14100192832
:1004700002D8203645F400654A46314620462560BC
:100480004D46FFF76DFE60B1012807D0ED1D25F048
:10049000070000E007E000F1080978E705F104092A
:1004A00075E730467AE7206ABDE8F09F9C2D000092
:1004B00030B505460B462A4613F8014B12F8010BDE
:1004C00008B1A042F8D01CB1002802D06D1CF1E7A1
:1004D000284630BD02F0FF0343EA032242EA02420B
:1004E00000F002B84FF000020429C0F0128010F0B2
:1004F000030C00F0AC80CCF1040CBCF1020F18BF6F
:1005000000F8012BA8BF20F8022BA1EB0C0100F092
:100510009EB85FEAC17C24BF00F8012B00F8012BD4
:1005200048BF00F8012B704770477047704770470D
:100530002DE9F0470D4699469246044600F12408FD
:100540000168880604D5E06921F01001216000E00F
:100550000120A84201DD471B00E00027A1697A19AC
:1005600002EB0900081AA0612078C00602D42046D8
:10057000FFF74AFE002608E0D4E901211AF8060038
:100580009047206A401C761C20624E45F4DB2078A0
:10059000C0060AD52046FFF737FE06E0D4E9012160
:1005A00030209047206A401C2062381EA7F10107C6
:1005B000F4DC07E0D4E9012118F805009047206A2F
:1005C000401C2062281EA5F10105F3DC2046FFF740
:1005D00031FE2078000602D50220BDE8F087012018
:1005E000FBE7000001694A1C02610878704700B50A
:1005F0008FB0CDE901310021059105497944CDE95C
:10060000031011466846FFF7B7FE0FB000BD0000AB
:10061000E5FFFFFF0A6802F8010B0A60704710B59A
:10062000436913B1AFF3008001E0FFF714FE01202E
:1006300010BD127800F124010A7000224A700122D4
:10064000EDE711684FF0FF32E9E74FF0000200B527
:10065000134694469646203922BFA0E80C50A0E8E5
:100660000C50B1F12001BFF4F7AF090728BFA0E893
:100670000C5048BF0CC05DF804EB890028BF40F85F
:10068000042B08BF704748BF20F8022B11F0804FA1
:1006900018BF00F8012B7047754600F02BF8AE46E6
:1006A00005006946534620F00700854618B020B57E
:1006B000FFF782FDBDE820404FF000064FF0000735
:1006C0004FF000084FF0000B21F00701AC46ACE8FA
:1006D000C009ACE8C009ACE8C009ACE8C0098D4667
:1006E000704710B50446AFF300802046BDE81040C7
:1006F000FFF74EBD004870470805002010B52D4893
:100700000078012855D12C4801F0A6FB002850D0D4
:10071000002400202749087028A2012101F0F6F8E2
:10072000254A0121042001F0F1F801202849086040
:100730004FF4FA7002F0B8FA00202649C1F8B4016B
:1007400000BF10E02146244801F040FD1A4922482C
:10075000FFF7AEFE00B108E01F48007A302800D154
:1007600003E0601CC4B2052CECDB00BF4FF47A70D0
:1007700002F09AFA052C05D118A20121002001F0FF
:10078000C5F80EE001230C4A19A11348FFF728FD14
:100790002146114802F030FA17A20121002001F091
:1007A000B5F84FF47A7002F07FFA0120164908700C
:1007B00000BF10BD7E000020840000202049433A85
:1007C0002020202020202020202020202000000089
:1007D000B401224200002242CC0400202020206DDF
:1007E000656D6572792066756C6C202000000000D4
:1007F00025732564000000002020207361766520A9
:100800006F6B2120200000007D00002010B5044601
:1008100000F014F878B900F0FBFB60B900F00EF8B6
:1008200048B900F009FC30B900F01AFC18B92046AC
:1008300000F02AFC10BD4FF6FE70FBE710B500F08B
:1008400011F80621054802F01BFC00F023F80028EF
:1008500002DD0348407A10BDFE20FCE71B000020AB
:10086000B404002010B50621014802F009FC10BDB7
:100870001500002010B5FFF7E1FF40B9642002F039
:1008800013FA00F0C5FB10B900F026FC10BD4FF6BE
:10089000FE70FBE710B518210448FFF723FE4FF464
:1008A0007A71024802F002FC10BD0000B40400207E
:1008B00008B50121182001F0F3FB4FF48050ADF88A
:1008C000000010208DF8030003208DF80200694617
:1008D0000D4800F0C4FC4FF480510B4800F0A3FD1C
:1008E0004FF40050ADF8000010208DF803000320F5
:1008F0008DF802006946054800F0B1FC4FF4005144
:10090000024800F090FD08BD000C014000100140BD
:1009100000BFFEE770B50446002500BF10E00120CF
:1009200009490860642002F0BFF900200749C1F8B6
:10093000B401012C02D0322002F0B6F9681CC5B215
:10094000A542ECDB70BD0000B4012242000022424F
:1009500010B586B000240020019002900390302250
:100960000A2101A8FFF7B6FD052204A9114801F0EC
:1009700095FD00208DF815000FA104A8FFF798FD44
:1009800090B906210E4802F029F900BF05E0214682
:1009900001A802F031F9601CC4B2052CF7DB052276
:1009A00005A1044801F08EFD0621064801F002FC75
:1009B00006B010BD00F00108464459445A0000003A
:1009C0006B0000205F00002010B5244801F044FABD
:1009D000002841D000240020214908700C2000F09C
:1009E00033FF20A20121002000F090FF1B4A0121CB
:1009F000042000F08BFF01201F4908604FF4FA70BB
:100A000002F052F900201D49C1F8B40100BF19E0FD
:100A100021461B4801F0DAFB10491948FFF748FD51
:100A200070B118A20121002000F070FF01201A49C6
:100A300008600F201949087001200949087003E077
:100A4000601CC4B2052CE3DB00BF0548007810B978
:100A500001201349087000BF10BD00008400002071
:100A60005E0000202049433A202020202020202022
:100A70002020202020000000B40122420000224259
:100A8000CC0400202020202020206F70656E2020C4
:100A90002020202000000000B08121427C000020A6
:100AA0007D0000202DE9F0410746884615460421C7
:100AB000052000F077F80021012002F0AFF8802136
:100AC0000A2001F087FD002405E0395D092002F0CD
:100AD000A5F8601CC4B24445F7DB0321012002F0F5
:100AE0009DF8FF2400BF052001F07EFB0646601E36
:100AF000C4B21CB106F004000028F4D0222001F09A
:100B000073FB2870212001F06FFB6870BDE8F08155
:100B100010B514A20121002000F0F8FE0220FFF71A
:100B2000F9FE002404E0002013490855601CC4B2FB
:100B3000062CF8DB0020114908601149C1F8B40106
:100B40001049087010490870104908701049087061
:100B500010490870104908701049087001201049A8
:100B6000087010BD70617373776F72643A20202033
:100B7000202020200000000065000020B0812142DC
:100B8000000022425D000020790000207B00002050
:100B9000780000207A000020770000205E0000200E
:100BA0007D00002070B505460C46284601F01CFB70
:100BB000064626EA0401284602F030F870BD00001F
:100BC0003EB52D480078012854D12C4801F044F955
:100BD00000284FD0002400202749087028A20121B6
:100BE00000F094FE254A0121042000F08FFE012030
:100BF000284908604FF4FA7002F056F800202649A0
:100C0000C1F8B40100BF0BE02146244801F0DEFA30
:100C10001A492248FFF74CFC00B103E0601CC4B243
:100C2000052CF1DB00BF4FF47A7002F03DF8052C83
:100C300005D11BA20121002000F068FE12E0002077
:100C4000009001900346024619A102901348FFF755
:100C5000C7FA2146114801F0CFFF1AA20121002056
:100C600000F054FE4FF47A7002F01EF801201A4989
:100C7000087000BF3EBD00007F00002084000020FF
:100C80002049433A202020202020202020202020FE
:100C900020000000B401224200002242CC040020C7
:100CA00020202066696E64206661696C2020000047
:100CB00025303258253032582530325825303258B8
:100CC0002564000020202044656C657465206F6BEE
:100CD00021202020202000007D00002010B50246A9
:100CE0000021002000BF0AE042FA01F303F00103F3
:100CF000C1F10704A3400344D8B24B1CD9B2082960
:100D0000F2DB10BD00200021054A117000BF04E095
:100D10000021044A1154411CC8B20628F8DB704770
:100D200077000020650000207047000010B57D4866
:100D3000007806287ED17C480078022839D17A488C
:100D40004078002835D178488078012831D176481C
:100D5000C07803282DD174480079002829D1724821
:100D60004079062825D10621704801F037FF64201C
:100D700001F09AFF06216E4801F01CFA6DA20121D4
:100D8000002000F0C3FD01206F4908604FF47A7025
:100D900001F08AFF00206D49C1F8B4016CA2012165
:100DA00000F0B4FDC92000F04FFD0F2000F04CFD15
:100DB000B4E05D480078022827D15B48407820BB2A
:100DC0005948807808BB5848C07801281DD156483A
:100DD0000079032819D154484079062815D100F02C
:100DE00003F938B95FA20121002000F08FFD022035
:100DF000FFF790FD0020604908804FF47A7001F001
:100E000053FF01205D49087088E047480078484951
:100E10000978884249D14448407845494978884210
:100E200043D1414880784249897888423DD13E4843
:100E3000C07800E074E03E49C978884235D13A482C
:100E400000793B49097988422FD1374840793849A0
:100E50004979884229D14A480078401C484908709D
:100E600008460078012811D146A20121002000F097
:100E70004DFD0120484908600F20484908700120B5
:100E8000474908700220FFF745FD47E045A20121D0
:100E9000002000F03BFD0220FFF73CFD0120464909
:100EA000087000203649087038E044480078401C3B
:100EB0004249087042A20121002000F027FD3F486E
:100EC0000078032815D100BF42A20121002000F0C4
:100ED0001DFD0020304908601C48D0F8B40108B955
:100EE000012000E0002018490860372001F0DCFEF6
:100EF000EAE70120144908604FF47A7001F0D4FE4B
:100F000000201249C1F8B40111A2012100F0FEFC39
:100F1000C92000F099FC0F2000F096FCFFF7F2FECC
:100F200010BD000077000020650000206B0000204D
:100F30005F000020496E69742070617373776F726F
:100F4000642E2E2E00000000B40122420000224236
:100F500070617373776F72643A2020202020202004
:100F60000000000020636C6561722066696E676531
:100F700072206F6B00000000820000207D000020C6
:100F8000780000202020202020206F70656E202017
:100F90002020202000000000B08121427C000020A1
:100FA0005D0000205365744E6577576F7264456E1F
:100FB00061626C6500000000790000207B00002069
:100FC0002020202020206572726F72202020202097
:100FD000000000004B6579626F617264204C6F63A2
:100FE0006B6564210000000010B5FFF73BFC062193
:100FF000054802F045F8FFF74DFC002802DD0348E4
:10100000407A10BDFE20FCE740000020B404002020
:1010100010B5FFF727FC0721054802F031F8FFF76C
:1010200039FC002802DD0348407A10BDFE20FCE7B1
:101030002C000020B404002010B5FFF713FC07219A
:10104000054802F01DF8FFF725FC002802DD0348E3
:10105000407A10BDFE20FCE733000020B4040020DD
:1010600010B5FFF7FFFB0621054802F009F8FFF76E
:1010700011FC002802DD0348407A10BDFE20FCE789
:101080003A000020B404002070B504460025200A70
:101090000F4948718C71002605E00D48805D284499
:1010A00085B2701CC6B2072EF7DB280A0849C87142
:1010B0000D72FFF7D7FB0921054801F0E1FFFFF7AB
:1010C000E9FB002802DD0348407A70BDFE20FCE702
:1010D00046000020B404002010B5FFF7C3FB0B212D
:1010E000094801F0CDFFFFF7D5FB002809DD0748CF
:1010F000407A30B90548C17A807A01EB002080B28D
:1011000010BD4FF6FE70FBE721000020B404002064
:1011100030B5044604254FF4302000F06FF8054642
:10112000042D17D10C48006940F002000A490861FB
:1011300008464461006940F0400008614FF43020E7
:1011400000F05CF805460448006941F6FD7108406E
:1011500001490861284630BD0020024004200B49A7
:10116000C96801F0010109B101200EE00749C96811
:1011700001F0040109B1022007E00449C96801F047
:10118000100109B1032000E0042070470020024054
:101190000348006940F08000014908617047000081
:1011A0000020024070B504460D460426F00200F00F
:1011B00025F80646042E11D10948006940F00100C7
:1011C000074908612580F00200F018F80646044837
:1011D000006941F6FE71084001490861304670BD62
:1011E00000200240024803494860034848607047B5
:1011F0002301674500200240AB89EFCD00B50246D0
:101200000423FFF7ABFF034603E0FFF7A7FF034606
:10121000521E012B01D1002AF7D102B9052318462D
:1012200000BD70B5054600242946522000F059FD46
:101230000446262C01D0002070BD284600F07FFC1B
:101240000446262C01D00020F6E7284600F0B8FD21
:101250000446262C01D00020EEE72620ECE72DE9FD
:10126000F04102460025002600200023002400272C
:1012700091F803C00CF00F0591F803C00CF0100CAE
:10128000BCF1000F03D091F802C04CEA050591F8BB
:1012900000C0BCF1000F31D0146800202BE04FF0EB
:1012A000010C0CFA00F3B1F800C00CEA03069E42F0
:1012B00020D183004FF00F0C0CFA03F7BC4305FA62
:1012C00003FC4CEA040491F803C0BCF1280F06D1DA
:1012D0004FF0010C0CFA00FCC2F814C00AE091F8BF
:1012E00003C0BCF1480F05D14FF0010C0CFA00FC13
:1012F000C2F810C0401C0828D1D31460B1F800C057
:10130000BCF1FF0F34DD546800202EE000F1080C22
:101310004FF0010808FA0CF3B1F800C00CEA03061C
:101320009E4221D183004FF00F0C0CFA03F7BC430F
:1013300005FA03FC4CEA040491F803C0BCF1280F41
:1013400005D100F1080C08FA0CF8C2F8148091F8E5
:1013500003C0BCF1480F07D100F1080C4FF00108A1
:1013600008FA0CF8C2F81080401C0828CED354604C
:10137000BDE8F081F0B50A460023002400210025D5
:1013800000F00046B6F1004F02D11D4EF16901E0B8
:101390001B4E7168C0F3034583B200F44016B6F5E6
:1013A000401F08D121F07061154E766826F07066F6
:1013B000134F7E6012E000F48016B6F5801F06D150
:1013C000032606FA05F4A14341F0706106E0460DDC
:1013D000360103FA06F6B14341F0706122B1460DC1
:1013E000360103FA06F6314300F00046B6F1004F2D
:1013F00002D1034EF16101E0014E7160F0BD0000C9
:10140000000001400146886880B270470246002013
:1014100093680B400BB1012000E0002070470146AB
:10142000C86880B270474161704701617047C16010
:1014300070470AB1016100E04161704700BFFEE7FB
:1014400070B50024632500F023FB0122D1034F482F
:10145000FFF7EFFF4E48FFF7E2FF40F03806314656
:101460004B48FFF7E4FF00F095F84948FFF7CAFF43
:1014700000F4707000286ED04548FFF7C3FF00F4F9
:101480007070841000F0D0FA4148FFF7C8FF40F4B4
:10149000707631463E48FFF7CAFF00F07BF83C48C3
:1014A000FFF7B0FF00F0380030B94FF40041374883
:1014B000FFF7ACFF002867D04FF400413348FFF737
:1014C000A5FF06463248FFF79DFF00F0380006EB07
:1014D000A0002044C4B200BF2D48FFF793FF00F0E6
:1014E00038000028F8D14FF400412848FFF78EFF5C
:1014F0000028F1D1412C28D012DC212C21D008DC8D
:10150000112C35D0122C2FD0142C27D0182C39D1D7
:1015100022E0222C2AD0242C15D0282C32D129E0EC
:10152000812C2DD006DC422C11D0442C11D0482C1B
:1015300028D121E0822C15D0842C11D0882C21D1E7
:101540001CE00F251FE006251DE000251BE00225FD
:1015500019E0052517E017E00A2514E00B2512E035
:10156000042510E001250EE00C250CE003250AE01F
:101570000D2508E0092506E0082504E0072502E01E
:101580000E2500E000BF00BF284670BD00080140E6
:10159000000C014042F2107000BF011EA0F10102D8
:1015A00090B2FAD17047000010B501210D2000F073
:1015B00077FD01210148FFF7DDFE10BD000230007C
:1015C00070B50446102C46D2DFE804F008090A0B77
:1015D0000C0D0E0F10114665849DA9B500BF00BF0C
:1015E00000BF00BF00BF00BF00BF00BF00BF594821
:1015F000007800282FD15848007800282BD1574870
:10160000007820BB56480078062821DA55A201212F
:10161000002000F07BF90120FFF77CF9002509E0AC
:1016200005F1C601C8B200F00FF92A2000F03EF91A
:10163000681CC5B24A4800788542F1DD4E484849E9
:101640000978445446480078401C4549087002E037
:101650000620434908707AE040480078D0B93D48F8
:10166000007808B9012000E000203A490870002005
:10167000394908700C2000F0E7F836480078012856
:1016800005D13EA20021084600F040F902E0012009
:101690003F4908705BE031480078D0B92E480078A7
:1016A00008B9012000E000202B49087000202949DA
:1016B00008700C2000F0C8F827480078012805D1F0
:1016C00034A20021084600F021F902E0012030494F
:1016D00008703CE01F480078A0B91F48007888B91E
:1016E0001E48007808B9012000E000201B4908705E
:1016F00008460078012802D101F022FB02E0012017
:101700002349087023E01348007838B9124800785C
:1017100020B91248007808B900F082FD17E00D48A2
:10172000007838B90C48007820B90C48007808B91E
:10173000FFF7EEF90BE00748007838B90648007863
:1017400020B90648007808B9FFF7F0FA00BF00BFDB
:1017500070BD00007E0000207F000020800000207F
:1017600077000020696E7075743A202020202020B8
:10177000202020200000000065000020202041647F
:1017800064204943204D4F444520202000000000A4
:101790007D0000202044656C657465204943204D20
:1017A0004F4445202020000008B501210C2000F006
:1017B00077FCFF20ADF8000010208DF80300032017
:1017C0008DF8020069461E48FFF749FD40F20340CC
:1017D000ADF8000010208DF8030003208DF8020002
:1017E00069461848FFF73BFD382000F02DF805202A
:1017F00001F05AFA382000F027F8052001F054FAD9
:10180000382000F021F8052001F04EFA082000F001
:101810001BF8052001F048FA012000F015F805201A
:1018200001F042FA062000F00FF8052001F03CFA22
:101830000C2000F009F8052001F036FA08BD000080
:1018400000080140000C014070B504460020144916
:101850000860012001F04EFA00201249C1F884010D
:10186000012001F047FA01200D492839086001F0F4
:1018700041FA0D48FFF7D3FD00F47F462046FFF7FD
:101880002DFA304485B229460748FFF7D0FD642081
:1018900001F030FA00200349C1F8800170BD00005A
:1018A000A8812142008021420008014070B5044611
:1018B00001201349086001F01DFA00201149C1F808
:1018C0008401012001F016FA01200D492839086031
:1018D00001F010FA0C48FFF7A2FD00F47F46204605
:1018E000FFF7FCF9304485B229460748FFF79FFD12
:1018F000642001F0FFF900200249C1F8800170BDA9
:10190000A8812142008021420008014070B50546AF
:101910000E4614462EB905F18001C8B2FFF794FFB8
:1019200004E005F1C001C8B2FFF78EFF03E02078A4
:10193000FFF7BCFF641C20780028F8D170BD10B5FB
:101940000446412C24D108210846FFF72BF93D21FC
:10195000112001F063F98621172001F05FF97F2142
:10196000262001F05BF91E212D2001F057F90021FE
:101970002C2001F053F98D212A2001F04FF93E214E
:101980002B2001F04BF9022001F0B4F900F0CAF865
:1019900010BD00BFFEE7704710B54FF4A06000F027
:1019A00039F810BD70B5002100230F22C47804B3AC
:1019B000154C246804F4E064C4F5E064210AC1F124
:1019C0000403CA40447804FA03F1847814402143A4
:1019D00009010E4C0678A155047804F01F05012476
:1019E000AC4005786D11AD0005F1E025C5F800416A
:1019F00009E0047804F01F050124AC40044D06788A
:101A0000761145F8264070BD0CED00E000E400E0E2
:101A100080E100E002490143024A11607047000082
:101A20000000FA050CED00E008B501210C2000F0E3
:101A300037FB4FF40040ADF8000028208DF803007C
:101A400003208DF8020069460F48FFF708FC382094
:101A5000ADF8000028208DF8030003208DF8020067
:101A600069460A48FFF7FBFB4FF47070ADF80000C1
:101A700010208DF8030003208DF80200694603480A
:101A8000FFF7EDFB08BD000000080140000C01401D
:101A900008B501210C2000F003FB4FF40040ADF825
:101AA000000010208DF8030003208DF80200694625
:101AB0000F48FFF7D4FB3820ADF8000010208DF858
:101AC000030003208DF8020069460A48FFF7C7FBB0
:101AD0004FF47070ADF8000028208DF8030003204B
:101AE0008DF8020069460348FFF7B9FB08BD000006
:101AF00000080140000C014008B50121102000F051
:101B0000CFFA4FF48040ADF8000028208DF8030094
:101B100003208DF8020069460148FFF7A0FB08BDCD
:101B20000010014010B5142000F05EFB044604F0E4
:101B3000030018B90321142000F04CFD10BDF0B5CE
:101B400087B00546002708210846FFF72BF800213B
:101B50000D2001F063F880210E20FFF723F8932079
:101B60008DF8080020208DF8090001A802AB0222A0
:101B700002A900900C2000F01BF80646262E10D17A
:101B8000002407E002A8005D285502A8005D474038
:101B9000601CC4B2042CF5DB02A8005DB84200D082
:101BA000BB2680210E2000F015FD304607B0F0BDA9
:101BB0002DE9FE4F0646884691469A46DDF830B03C
:101BC000BB2002900020019000900C2E06D00E2E1B
:101BD00009D1122001901020009005E0772001909B
:101BE0003020009000E000BF00BF019840F080016D
:101BF000022001F013F880210420FEF7D3FF00211A
:101C0000012001F00BF880210A2000F0E3FC002500
:101C100005E018F80510092001F000F86D1C4D458D
:101C2000F7D33146012000F0F9FF0C2E03D18021BB
:101C30000D2000F0CFFC4FF47A7500BF042000F0B7
:101C4000D3FA04466D1E35B104F0010018B90098AE
:101C500020400028F2D080210D20FEF7A3FF95B38D
:101C6000062000F0C1FA00F01B0068BB262002909D
:101C70000198204000F0010008B1CC2002900C2E09
:101C800024D10A2000F0B0FA04460C2000F0ACFA8F
:101C900000F007072FB1601E07EBC000CBF8000073
:101CA00002E0E000CBF8000004B90124122C00DDB2
:101CB0001224002505E0092000F096FA0AF8050034
:101CC0006D1CA542F7D301E0BB20029080210C20BF
:101CD00000F080FC0021012000F0A0FF0298BDE888
:101CE000FE8F70B588B005460C4608210846FEF701
:101CF00059FF07210D2000F091FF0321142000F06F
:101D000069FC8DF80C5002A803AB012203A90090D6
:101D10000C20FFF74DFF0646262E09D10298102809
:101D200006D19DF80C0020709DF80D00607000E059
:101D3000BB26304608B070BD10B54FF400611F4897
:101D4000FFF773FB032000F0D5FF4FF400611B4841
:101D5000FFF769FB032000F0CDFF4FF40061174847
:101D6000FFF763FB032000F0C5FF0F21012000F007
:101D700055FF00BF012000F037FA00F010000028E6
:101D8000F8D1032000F0B6FF3D21112000F046FFFE
:101D90001E212D2000F042FF00212C2000F03EFFEC
:101DA0008D212A2000F03AFF3E212B2000F036FF43
:101DB0004021152000F032FF10BD00000008014056
:101DC00070B588B0054693208DF80C0070208DF812
:101DD0000D0000208DF8120000240BE0295D03AAFD
:101DE000A01C11549DF81200295D48408DF8120086
:101DF000601CC4B2042CF1DB0DF11302072103A80F
:101E0000FEF750FE08210846FEF7CCFE02A803AB01
:101E1000092203A900900C20FFF7CAFE0646262ED1
:101E200003D10298182800D100E0BB26304608B044
:101E300070BD704710B500F0B5F84FF4006104486C
:101E4000FFF7F3FA4FF400510248FFF7EEFA10BD26
:101E500000080140000C01401CB504462A480078E7
:101E6000012803D029480078012836D12848007875
:101E7000062828D2DFE800F003090F151B2125A250
:101E800001210020FFF742FD21E027A201210020CF
:101E9000FFF73CFD1BE029A201210020FFF736FDE2
:101EA00015E02BA201210020FFF730FD0FE02DA24D
:101EB00001210020FFF72AFD09E02FA201210020C7
:101EC000FFF724FD03E000201149087000BF00BFA8
:101ED0000F480078401C0E4908702C48FFF7A1F904
:101EE00026280ED12948C07828498978CDE90010E4
:101EF00026484378027826A12046FEF771F9012092
:101F00001CBD0020FCE700007F0000207E000020B8
:101F10009000002020202020202028292020202080
:101F20002020202000000000202020202028282918
:101F30002920202020202020000000002020202018
:101F400028282829292920202020202000000000DE
:101F5000202020282828282929292920202020203D
:101F6000000000002020282828282829292929299C
:101F700020202020000000002020202020202020E1
:101F80002020202020202020000000008C000020A5
:101F900025303258253032582530325825303258C5
:101FA0000000000008B50121082000F079F84FF486
:101FB0000050ADF8000003208DF8020010208DF8CD
:101FC000030069462448FFF74AF90121082000F080
:101FD00067F84FF48040ADF8000003208DF8020050
:101FE00010208DF8030069461B48FFF738F90121DE
:101FF000082000F055F84FF40040ADF80000032031
:102000008DF8020010208DF8030069461248FFF792
:1020100026F90121042000F043F84FF48070ADF858
:10202000000004208DF8030069460C48FFF717F9FB
:102030000121042000F034F84FF40060ADF80000F6
:1020400003208DF8020010208DF803006946034834
:10205000FFF705F908BD0000000C01400008014031
:1020600029B1064AD2690243044BDA6104E0034A0B
:10207000D2698243014BDA617047000000100240D0
:1020800029B1064A12690243044B1A6104E0034A6B
:1020900012698243014B1A61704700000010024030
:1020A00029B1064A92690243044B9A6104E0034A4B
:1020B00092698243014B9A61704700000010024010
:1020C00029B1064AD2680243044BDA6004E0034AAD
:1020D000D2688243014BDA60704700000010024072
:1020E00030B500210022002400232D4D6D6805F03D
:1020F0000C0121B1042905D0082923D105E0294D7F
:10210000056022E0274D05601FE0254D6D6805F450
:102110007012234D6D6805F48034022505EB924260
:102120001CB9214D554305600BE01D4D6D6805F44C
:1021300000351DB11C4D5543056002E0194D554356
:10214000056002E0174D056000BF00BF144D6D68CB
:1021500005F0F0010909154D6B5C0568DD4045602F
:102160000F4D6D6805F4E061090A104D6B5C456820
:10217000DD4085600A4D6D6805F46051C90A0B4D5C
:102180006B5C4568DD40C560054D6D6805F44041F8
:10219000890B074D6B5CC568B5FBF3F5056130BD78
:1021A0000010024000127A0000093D0000000020EB
:1021B0001000002070B504460D462A46214602480C
:1021C00000F06CF970BD0000A0F0010870B5044685
:1021D0000D460449102202FB05100A22214600F098
:1021E0005DF970BD00F0010870B504467E2000EA7C
:1021F000440040F080054FF400510848FFF713F900
:10220000284600F01DF900F0EFF806464FF40051A3
:102210000248FFF70AF9304670BD0000000C01408B
:1022200010B5002454480078C8B90320FEF772FBAB
:1022300052A201210020FFF769FB4FF47A7000F0F1
:1022400033FD53A201210020FFF760FBC920FFF7F7
:10225000FBFA0F20FFF7F8FAFEF754FD8AE0514829
:1022600000780128FAD1504800780628F6D14F4866
:102270000078401C4D49087008460078022865D156
:102280004B4800784B490978884240D1484840780B
:102290004849497888423AD1454880784549897803
:1022A000884234D14248C0784249C97888422ED108
:1022B0003F4800793F490979884228D13C48407914
:1022C0003C494979884222D13BA201210020FFF7F5
:1022D0001DFB0220FEF71EFB0621354800F07EFCA8
:1022E000642000F0E1FC06213848FFF763FF4FF45B
:1022F0007A7000F0D9FC26A201210020FFF706FB2E
:10230000C920FFF7A1FA0F20FFF79EFA16E003207D
:10231000FEF700FB19A201210020FFF7F7FA4FF4A6
:102320007A7000F0C1FC1AA201210020FFF7EEFA3A
:10233000C920FFF789FA0F20FFF786FA0020194914
:1023400008701A4908702249087011E00120FEF750
:10235000E1FA20A201210020FFF7D8FA002405E0CD
:102360001448005D12490855601CC4B2062CF7DB06
:10237000FEF7C8FC10BD00005D00002020202020DA
:1023800020206572726F7220202020200000000043
:1023900070617373776F72643A20202020202020B0
:1023A0000000000079000020770000207A00002063
:1023B00071000020650000205265736574506173E0
:1023C00073776F72644F4B20000000005F000020A5
:1023D00078000020696E70757420616761696E20F5
:1023E000202020200000000070B500251FE06006BE
:1023F000040E4FF480411048FFF715F8032000F059
:1024000079FC4FF480710D48FFF700F8012801D1E5
:1024100044F00104032000F06DFC4FF480410648B5
:10242000FFF703F8032000F065FC681CC5B2082D17
:10243000DDDB204670BD0000000C014000080140BB
:1024400070B50446002524E004F0800028B14FF464
:1024500000411148FEF7E9FF04E04FF400410E4847
:10246000FEF7E1FF032000F045FC4FF480410A48ED
:10247000FEF7D9FF032000F03DFC4FF480410648F1
:10248000FEF7D3FF032000F035FC6006040E681C45
:10249000C5B2082DD8DB70BD000C014030B5034635
:1024A0000C461546002207E0184600F008F824F80C
:1024B00012009B1C501C82B2AA42F5DB30BD0146C3
:1024C000088870472DE9F05F80468A461746B8F1C4
:1024D000006F02D33348804501D3BDE8F09FFEF77B
:1024E00081FEA8F1006B4FEA9B25CBF34809C9F5A3
:1024F0000074A74200DC3C464DE04FF0006101EB68
:1025000085208A142849FFF7C9FF00260BE009EB54
:102510000600254931F810004FF6FF71884200D0BF
:1025200003E0701C86B2A642F1DB00BFA6421BDAB4
:102530004FF0006101EB8520FEF7EAFD002608E080
:102540003AF8160006EB0901174A22F81100701C30
:1025500086B2A642F4DB4FF0006101EB85208A14BD
:10256000114900F023F804E022465146404600F0AD
:102570001DF8A74200D10FE06D1C4FF000090AEBD7
:10258000440AA044381B87B2B7F5007F02DD4FF440
:10259000007400E03C46B0E700BFFEF7F9FD00BF65
:1025A0009BE7000000000208B40000202DE9F04184
:1025B00005460E461746002407E036F81410284654
:1025C000FEF7F0FDAD1C601C84B2BC42F5DBBDE83B
:1025D000F081704770B505460C462846FFF704FEAB
:1025E000064646EA0401284600F018FB70BD10B507
:1025F00000F002F810BD00000CB500200190009022
:102600003348006840F480303149086000BF3048EA
:10261000006800F4003000900198401C0190009880
:1026200018B90198B0F5A06FF1D12948006800F4FD
:10263000003010B10120009001E0002000900098CF
:10264000012843D12348006840F010002149086068
:102650000846006820F0030008600846006840F063
:10266000020008601A4840681949486008464068F6
:1026700048600846406840F480604860084640680A
:1026800020F47C1048600846406840F4E810486038
:102690000846006840F08070086000BF0C48006881
:1026A00000F000700028F9D00948406820F00300CD
:1026B000074948600846406840F00200486000BF93
:1026C0000348406800F00C000828F9D10CBD000058
:1026D0000010024000200240042808D14FF0E02101
:1026E000096941F004014FF0E022116107E04FF069
:1026F000E021096921F004014FF0E02211617047E7
:102700007047000010B51348006840F001001149FF
:10271000086008464068104908400E49486008466D
:1027200000680E4908400B4908600846006820F41C
:10273000802008600846406820F4FE0048604FF49E
:102740001F008860FFF753FF4FF0006004490860E6
:1027500010BD0000001002400000FFF8FFFFF6FE71
:1027600008ED00E010B50121880700F076F850B3BD
:10277000154801780078401C134A107064291EDB4C
:102780000020114608701148007828B10F480078E1
:10279000401E0E49087012E00D480078012803D051
:1027A0000C48007801280AD10B48007838B900207D
:1027B000074908700749087001200849087001217D
:1027C000880700F03BF810BD140000207C000020BA
:1027D0005D0000205E000020790000207D000020C8
:1027E0007FB505460C4601210846FFF739FCADF8D8
:1027F0000850ADF804400020ADF80A00ADF806001E
:1028000001A94FF0804000F043F81C208DF8000033
:1028100001208DF8010000208DF8020001208DF8C4
:1028200003006846FFF7BEF801221146900700F04A
:1028300025F80121880700F004F87FBDCA43028211
:10284000704721B1028842F00102028004E0028850
:102850004FF6FE731A400280704730B502460020E2
:1028600000230024158A05EA0103958905EA01047D
:1028700013B10CB1012000E0002030BD1AB18389F2
:102880000B43838102E083898B438381704700007F
:10289000002202881D4B98420ED01D4B98420BD04F
:1028A000B0F1804F08D01B4B984205D01A4B98428C
:1028B00002D01A4B984204D14FF68F731A404B88BE
:1028C0001A43174B984207D0164B984204D04FF644
:1028D000FF431A40CB881A4302808B8883850B887C
:1028E00003850A4B98420BD0094B984208D00E4BF7
:1028F000984205D00D4B984202D00D4B984201D121
:102900000B7A03860123838270470000002C01406C
:10291000003401400004004000080040000C00406A
:1029200000100040001400400040014000440140FD
:102930000048014010B540F225510E4800F08AF8D9
:1029400090B10D480068302802D300200A49086081
:10295000084800F03BF9C1B2074802680068401C13
:10296000054B18600548815440F22551014800F09C
:1029700007F810BD00380140AC000020D60400204C
:1029800010B50022002340F66A14A14200D100BF16
:102990000A1201249440A3B2DC43048010BD21B18B
:1029A000828942F40052828104E082894DF6FF73ED
:1029B0001A4082817047000010B5044620488442C6
:1029C00009D101218803FFF77BFB00214FF48040F0
:1029D000FFF776FB32E01B48844209D1012148040D
:1029E000FFF74EFB00214FF40030FFF749FB25E0D5
:1029F0001548844209D101218804FFF741FB0021D9
:102A00004FF48020FFF73CFB18E01048844209D1C6
:102A10000121C804FFF734FB00214FF40020FFF729
:102A20002FFB0BE00A48844208D101210805FFF77B
:102A300027FB00214FF48010FFF722FB10BD0000A0
:102A4000003801400044004000480040004C004075
:102A50000050004070B502460024002300250020ED
:102A600040F66A16B14200D100BFC1F3421501F031
:102A70001F03012606FA03F3012D02D19689334084
:102A800006E0022D02D1168A334001E0968A3340D7
:102A90000C12012606FA04F41688344013B10CB166
:102AA000012000E0002070BDF0B5034600240026A0
:102AB0000025002040F66A17B94200D100BF184631
:102AC000C1F3421401F01F06012707FA06F5012C95
:102AD00001D10C3004E0022C01D1103000E01430A0
:102AE0001AB107682F43076002E00768AF43076029
:102AF000F0BD00002DE9F04786B005460E460024E3
:102B0000A24600BFA1460027B08900B100BF2F46F2
:102B10002C8A4CF6FF700440F08804432C82AC8968
:102B20004EF6F3100440B088318908437189084398
:102B30000443AC81AC8A4FF6FF400440B0890443A3
:102B4000AC8201A8FFF7CCFA1F48874202D1DDF81A
:102B500010A001E0DDF80CA0A88900F4004040B10D
:102B60000AEBCA0000EB0A1031684900B0FBF1F82B
:102B700007E00AEBCA0000EB0A1031688900B0FBDD
:102B8000F1F86420B8FBF0F004012009642101FB96
:102B90001089A88900F4004040B1322000EBC90040
:102BA000B0FBF1F000F00700044308E0322000EB36
:102BB00009106421B0FBF1F000F00F0004432C81F8
:102BC00006B0BDE8F0870000003801400146888863
:102BD000C0F30800704700BFFEE7000070B5044670
:102BE0000D462A4621460348FFF76CFC642000F09E
:102BF0005BF870BDA0F0010870B504460D460649AB
:102C0000102202FB05100A222146FFF75BFC64201C
:102C100000F04AF870BD000000F0010870B50446ED
:102C20000D467E2000EA44064FF400510748FEF7A7
:102C3000FAFB3046FFF704FC2846FFF701FC4FF48F
:102C400000510248FEF7F1FB70BD0000000C01408E
:102C500030380A2801D20120704700207047014611
:102C600000BF704710B56FF00400FFF735FD0A484C
:102C700000680A49B0FBF1F009490870084600787D
:102C800000EB4001C1EBC0104FF6FF7101EAC0003C
:102C90000449088010BD00009400002000127A0052
:102CA000A8000020AA0000200146114A12884A43C9
:102CB0004FF0E0235A6100229A611A46126942F0ED
:102CC00001021A6100BF4FF0E022106900F001021A
:102CD0001AB100F48032002AF5D04FF0E0221269D8
:102CE00022F001024FF0E0231A6100229A6170473E
:102CF000AA0000200146114A12784A434FF0E0230F
:102D00005A6100229A611A46126942F001021A6160
:102D100000BF4FF0E022106900F001021AB100F488
:102D20008032002AF5D04FF0E022126922F0010231
:102D30004FF0E0231A6100229A617047A80000203A
:102D400010B5C020FEF780FD5520FEF7AFFD7320C3
:102D5000FEF7ACFD6520FEF7A9FD7220FEF7A6FD8B
:102D60007320FEF7A3FD2020FEF7A0FD6920FEF7EB
:102D70009DFD6420FEF79AFD0F4909783031C8B2F5
:102D8000FEF794FD2020FEF791FD7220FEF78EFDE8
:102D90006520FEF78BFD6720FEF788FD2020FEF7FB
:102DA00085FD2020FEF782FD2020FEF77FFD2020FC
:102DB000FEF77CFD10BD00008200002070B51E48AB
:102DC0000068012836D11D480078012815D11C481B
:102DD0000088FDF71BFDC4B27CB919480088401C6F
:102DE0001749088008460088092801DD002008806E
:102DF000FFF7A6FF0120FDF78DFD10480078C8B948
:102E00000025FDF737FD05464FF6FE70854210D0D0
:102E10000CA201210020FEF779FD01200E49086077
:102E20000F200E49087001200D4908700220FDF79F
:102E300071FD00BF70BD00003801224280000020FB
:102E4000820000202020202020206F70656E20202E
:102E50002020202000000000B08121427C000020C2
:102E60005D000020FFF7FEFEFEF796FDFEF79CFBDF
:102E7000FDF71EFD4FF4FA70FFF716FFFDF742FF56
:102E8000FEF792FC33A200210846FEF73FFD36A272
:102E900001210020FEF73AFDFDF75AFDFEF72CFE5A
:102EA000FEF7C8FFFEF748FF4120FEF748FD4FF44C
:102EB000614000F087F840F2CF2140F2E730FFF7A1
:102EC0008FFC46E02D48007801281CD100202B49BA
:102ED00008702B490860FDF715FF0020294908708C
:102EE0002949C1F8B00129A200210846FEF70EFDCC
:102EF0002BA201210020FEF709FDC920FEF7A4FC4A
:102F00000F20FEF7A1FCFFF759FF2A48007820B9EF
:102F10002948007808B9FDF757FDFDF7EFFBFDF7ED
:102F20004FFEFEF78DFA25490870084600781028F4
:102F30000CDA2348007848B90120214908701F485D
:102F40000078FEF73DFB00201D4908700A20FFF7BE
:102F5000ABFEB7E72020204C6F6164696E672E2EB0
:102F60002E202020000000002020202020202020D3
:102F70002020202020202020000000007D000020B4
:102F8000B401224278000020008021423D3D3D43B3
:102F90006F646564204C6F636B3D3D3D0000000035
:102FA00070617373776F72643A2020202020202094
:102FB000000000007F0000207E0000205B00002059
:102FC0005A00002010B586B00446012144F20500E5
:102FD000FFF766F82848FFF7EFFC4FF40070ADF8F4
:102FE000140003208DF8160018208DF8170005A98D
:102FF0002248FEF734F94FF48060ADF81400042045
:103000008DF8170005A91D48FEF729F925208DF830
:10301000000000208DF801008DF8020001208DF8DD
:1030200003006846FEF7BEFC01940020ADF80800DE
:10303000ADF80A00ADF80C00ADF810000C20ADF8AA
:103040000E0001A90C48FFF755FD01A90A48FFF73A
:1030500051FD012240F225510748FFF725FD0022CE
:1030600040F224410448FFF71FFD01210248FFF709
:1030700096FC06B010BD0000003801400008014079
:103080000BE000BF084A128802F04002002AF9D083
:103090000278054B1B1D1A80401C0A1EA1F101037A
:1030A000D9B2EED170470000003801402DE9F0415F
:1030B00005460E46374600BF0120FFF7F5FD002FFD
:1030C00019DD781E80B2071E14D10B4908780968F3
:1030D00059B1002405E00949095D29706D1C611C86
:1030E000CCB2054909688C42F5D30021024A11602F
:1030F000BDE8F08100BFDFE7AC000020D60400206F
:10310000303132333435363738394142434445461D
:103110004030580030313233343536373839616217
:103120006364656640307800040000080000000019
:103130000000000200010000100000005C310008E7
:1031400000000020B4000000280100081032000830
:10315000B4000020B40A0000440100080000000090
:103160000102030401020304060708090204060819
:1031700000EF01FFFFFFFF01000301000501000850
:103180000401000003A100B20100040201000801D3
:103190000004020200090100030500090100030DFB
:1031A00000110100060601000B00190100070C00C8
:1031B000000001000000000000000000000000000E
:1031C00000000000000000000000000000000000FF
:1031D00000000000000000000001000000000000EE
:1031E00000000000000000000000000000000000DF
:1031F00000A24A04000000000000000001020304D5
:1032000006070809000000000000000000000000A0
:04000005080000ED02
:00000001FF
